:020000020000FC
:040000000C9422003A
:040010000C94480103
:040024000C94B30184
:040034000C947401B3
:100040000C9456010FEF0DBF08E00EBF3F065B4F4B
:10005000666D7D077F67F89400E00093C10000E8BB
:100060000093610004E00093610000E004BD05E03E
:1000700005BD04E606BD0BE1009385000EE100938B
:10008000840000E00093800005E00093810001E01F
:1000900000936F0004E00093B10002EB0093B20004
:1000A00001E00093700007E000936C0002E0009311
:1000B00068000FEF04B900E005B93C9A3D9A4498F6
:1000C00045980FE70AB900E00BB9389839983A9883
:1000D000409A419A429A552700E00093000100930C
:1000E000010100930201009303011124772788275F
:1000F000789403C0449A459A00C0703029F071305A
:10010000E1F07230B9F3F9CF449A4598152F137086
:10011000103039F0113041F0123049F0133051F005
:10012000ECCF0E941001E9CF0E941E01E6CF0E9491
:100130002C01E3CF0E943A01E0CF4498459A8130E8
:1001400019F0823061F155C00091000103950A3029
:10015000D0F000271091010113951630B8F0112747
:1001600020910201239530910301323029F424308B
:1001700080F02227332710C02A3058F022273395E9
:10018000333050F033270093000131C01093010148
:10019000FACF20930201FACF30930301FACF0091F6
:1001A00000010A950F3FB9F409E0109101011A9579
:1001B0001F3FA1F415E0209102012A952F3F89F4F9
:1001C00029E0309103013A953F3F71F409E015E0D1
:1001D00023E032E009C00093000109C0109301013F
:1001E000FACF20930201FACF30930301FACF882788
:1001F00000C0152F1370103039F0113041F012305B
:1002000049F0133051F079CF0E94100176CF0E944F
:100210001E0173CF0E942C0170CF0E943A016DCF56
:100220002B982A982998289800910001ECE4F0E096
:10023000E00FF11D04910BB92B9A08952B982A9881
:100240002998289800910101ECE4F0E0E00FF11DFD
:1002500004910BB92A9A08952B982A9829982898DE
:1002600000910201ECE4F0E0E00FF11D04910BB904
:10027000299A08952B982A98299828980091030183
:10028000ECE4F0E0E00FF11D04910BB9289A089519
:100290000F930FB70F9336B1A89A04E606BD01E09D
:1002A00000936E000F910FBF0F9118950F930FB72A
:1002B0000F9306B10317A1F4309B739503E07013FD
:1002C00001C07727703029F0713021F0723039F099
:1002D00007C006C0319B81E0329B82E001C000C0B4
:1002E0000F910FBF0F9118952F932FB72F930BE1FD
:1002F000009385000EE100938400703081F580E06A
:100300000091000103950A30F1F4002700930001E9
:100310000091010103950630C9F400270093010103
:10032000009102010395A0910301A23029F4043049
:1003300080F00027AA2710C00A3058F00027A395A4
:10034000A33050F0AA270093000109C000930101D7
:1003500006C00093020103C0A093030100C00F91E7
:100360000FBF0F9118951F931FB71F93B89A02EBF9
:100370000093B2005395583C09F4552743954436F1
:0E03800011F41D9A44271F911FBF1F9118955D
:00000001FF
